:020000040800F2
:1000000000200020DD010008E5010008E9010008EA
:1000100000000000000000000000000000000000E0
:100020000000000000000000000000001D020008A9
:100030000000000000000000210200082502000866
:100040002D0200082D0200082D0200082D020008D4
:100050002D020008911100082D0200082D02000851
:100060002D0200082D0200082D0200082D020008B4
:100070002D0200082D0200082D02000821110008A1
:100080002D0200082D020008000000002D020008CB
:100090002D020008511100082D0200082D02000851
:1000A0002D0200082D0200082D0200082D02000874
:1000B0002D020008000000002D02000800000000D2
:1000C0005FF808F130B583B000F06EFC314B324A76
:1000D0001360324A1360324B324A03E011681960F0
:1000E0000433043230498B42F8D32B4B1A682F4B20
:1000F0009A4204D1294B1A682D4B9A4200D0FEE750
:10010000244B2C4A13602C4A13602C4B02E0002233
:100110001A6004332A4A9342F9D3264B1B68002BFA
:1001200003D1254B1B68002B00D0FEE700F040FCFC
:10013000694601A800F046FB224C234B1C1BA4106F
:10014000002504E0AA001F4BD35898470135AC4264
:10015000F8DC1E4C1E4B1C1BA410002504E0AA005A
:100160001A4BD35898470135AC42F8DC00990198F6
:1001700000F0C4FF0500174C174B1C1BA41004E033
:10018000013CA200134BD3589847002CF8DC280000
:1001900000F0B4FABABADECA00000020E80100207C
:1001A0000000002090680008EC010020785634120E
:1001B00032547698EC010020B0030020EC010020BE
:1001C000B403002058020008580200085802000832
:1001D00058020008580200085802000810B5FFF73E
:1001E00071FFC04600BEFEE704207146084202D0FF
:1001F000EFF3098001E0EFF3088071460A4A1047E7
:1002000070B504000D00044800F070FB29002000C8
:1002100000F0D2FB00BEFEE74C64000800BEFEE723
:1002200000BEFEE7704700000102000800BEFEE7C6
:100230009068000800000020EC0100209068000891
:100240000000000000000000EC010020B4030020CA
:080250000000000000000000A6
:1002580070B505000E009023DB05984212D03C4B88
:1002680098420FD03B4B98420CD03B4B984209D058
:100278003A4B984206D03A4B984203D0AE213948BF
:1002880000F026FB3368002B03D1AF21354800F07E
:100298001FFB3379032B03D9B021324800F018FB38
:1002A800F379022B03D9B1212E4800F011FB002469
:1002B8004AE00123A34032681A40934243D133797C
:1002C800013BDBB2012B27D87379012B05D9032B0E
:1002D80003D0C121234800F0FBFAAB686100032278
:1002E8008A409343AB60AA6873798B401343AB6031
:1002F800B379012B03D9C8211A4800F0E9FAAB8871
:100308002104090C01228A409343AB80A888B27962
:100318008A4093B20343AB802B686100032210002C
:10032800884083432B60286833798B4003432B60D4
:10033800EB682004C00B82409343EB60EA68F379D2
:100348008B401343EB6001340F2CB2D970BDC0460B
:100358000004004800080048000C0048001000484D
:10036800001400485062000870B504000D000D4BE1
:10037800184201D1002803D10B490C4800F0A8FA13
:10038800012D03D90A49094800F0A2FA002D04D02A
:10039800084A53691C43546103E0064A5369A3435E
:1003A800536170BDA8FF81FE5605000084620008F5
:1003B800570500000010024070B504000D000D4BF9
:1003C800184201D1002803D10B490C4800F080FAEB
:1003D800012D03D90A49094800F07AFA002D04D002
:1003E800084A93691C43946103E0064A9369A3434E
:1003F800936170BD1EA5B8FF7D05000084620008EA
:100408007E05000000100240F8B505000C00644BA2
:10041800984206D0634B984203D0EB21624800F023
:1004280057FA2388002B0FD08022D20093420BD09A
:1004380080221202934207D0C0221202934203D0B4
:10044800EE21594800F044FA638882225200934210
:1004580005D0002B03D0EF21534800F039FAA388C8
:10046800C0229200934233D00132FF3293422FD000
:100478000132FF3293422BD00132FF32934227D010
:100488000132FF32934223D00132FF3293421FD010
:100498000132FF3293421BD00132FF32934217D010
:1004A8000132FF32934213D00132FF3293420FD010
:1004B8000132FF3293420BD00132FF32934207D010
:1004C8000132FF32934203D0F021374800F000FA9E
:1004D800E388002B05D0022B03D0F121324800F02D
:1004E800F7F92389012B03D9F2212F4800F0F0F9FD
:1004F800638980229200934205D0002B03D0F32118
:10050800294800F0E5F9A389002B11D0082B0FD05A
:10051800102B0DD0182B0BD0202B09D0282B07D04F
:10052800302B05D0382B03D0F4211F4800F0D0F928
:10053800E389002B05D0802B03D0F5211A4800F061
:10054800C7F9238A002B03D1F621174800F0C0F918
:100558002E88C1239B011E402188E089E3889C46A0
:1005680022896389A7890143604601430A431A43E4
:100578003B00134333432B80AA880C4B1340A288BB
:100588001343AB80238A2B822B88042293436288EF
:1005980013432B80AA8B064B1340AB83F8BDC04690
:1005A8000030014000380040B4620008FFF0FFFF4F
:1005B800FFF7FFFF70B504000D000F4B984207D0FE
:1005C8000E4B984204D0DE2149000D4800F080F916
:1005D800012D04D9BE21FF31094800F079F9002D19
:1005E80005D02288402313439BB2238003E023884D
:1005F80040229343238070BD003001400038004002
:10060800B462000870B504000D00064B984207D08C
:10061800054B984204D0B8218900044800F058F9E5
:10062800257370BD0030014000380040B4620008F6
:1006380070B505000C00144B984206D0134B984235
:1006480003D01349134800F043F9802C15D0402CEF
:1006580013D0202C11D0102C0FD0022C0DD0012C2F
:100668000BD080235B009C4207D0042C05D0082CBB
:1006780003D00949074800F02BF92B89234201D000
:10068800012000E0002070BD00300140003800402B
:10069800C9040000B4620008CA04000010B5034889
:1006A80000F036F9012000F025F8C046E4620008A1
:1006B80010B503000C4A1268002A02D10B490A4AF5
:1006C8001160094A1068033303229343C318084A88
:1006D800934206D902F0C2F80C230360012040427D
:1006E80001E0014A136010BDF0010020B4030020AE
:1006F800001C002030B5002801D1044D00E0044D55
:100708001824201C291CABBE041CFEE7260002008E
:1007180023000200F0B5474680B484B0224F01ACF4
:1007280001970326A660002363600125281C211C6D
:10073800ABBE80461D4B42461A600197A660042353
:100748006360281C211CABBE8046194B42461A60C8
:100758000197A66008236360281C211CABBE041CFB
:10076800144B1C60631C03D1114B1A68114B1A609F
:10077800002305E0D900012040420F4A8850013388
:10078800132BF7DD0C4B094A12681A6000225A60D5
:10079800074909689960DA600649096819615A6168
:1007A80004B004BC9046F0BDF8620008480200207E
:1007B800F40100207402002078020020F0B55F46A2
:1007C80056464D464446F0B483B083468A466D4645
:1007D8003D4B00934F2301931524201C291CABBECD
:1007E800041C002C50D100214F23374AD154009DBE
:1007F800002700239846994641E04346002B21D123
:1008080002F03EF800190123C356002B03DB092E22
:1008180003D1012302E0012300E00023002B2DD1A6
:100828004B46082B32DC222E01D0272E01D1013570
:1008380027004B469A00254BD55001239C46E1449E
:1008480098461BE0002F06D0B74217D100232B7023
:100858000027984612E002F013F804190123E35622
:10086800002B03DB092E03D1012302E0012300E062
:100878000023002B02D000232B709846013500245A
:100888002C57261EB9D101E0002399464B46002B70
:1008980007D10D4B00221A700C4A136001239C46A5
:1008A800E1440A4B4A4692000021D1505A46494633
:1008B800116052461360FFF72DFF03B03CBC904611
:1008C8009946A246AB46F0BDF80100204C02002034
:1008D80010B50A000100024800F004F8FFF7DEFE38
:1008E800446300080FB400B583B004AB04CB019394
:1008F8008021064802F024FD002803DD010003489A
:1009080000F04AF803B008BC04B0184718030020E8
:1009180010B5040002F0E2FC0100200000F03CF8F1
:100928000121024800F038F810BDC046A86300084D
:10093800F0B54F464646C0B487B00400019143560F
:10094800002B1FD10426301C211CABBE041C1CE04C
:100958003E00102F00D91026002305E00022A256E1
:1009680002A9CA5401330134B342F7D302AA91460B
:1009780000224946CA540425281C4946ABBE804675
:10098800BF1B00E0019F002FE2D1019807B00CBC0B
:1009980090469946F0BDC04610B5FFF7C9FF10BD97
:1009A80010B500F0A1F810BD10B500F0CFF810BDDB
:1009B80070B504000D001548FFF794FF216814482E
:1009C800FFF790FF61681348FFF78CFFA168124892
:1009D800FFF788FFE1681148FFF784FF2169104895
:1009E800FFF780FF61690F48FFF77CFFA1690E4898
:1009F800FFF778FFE1690D48FFF774FF0C48FFF730
:100A080071FF29000B48FFF76DFF70BD9C6300085C
:100A1800AC630008BC630008CC630008DC63000812
:100A2800EC630008FC6300080C6400081C64000800
:100A38002C6400083464000882B0002301930093FA
:100A4800264A1368802149020B431360234B1A6816
:100A580080239B0213400093019B01330193009B69
:100A6800002B04D1019AA023DB019A42EED11B4B43
:100A78001B689B0302D50123009301E00023009328
:100A8800009B012B28D11122154B1A60134B5A6871
:100A98005A605A685A605968124A0A405A605A6835
:100AA800882149030A435A601A68802149040A4385
:100AB8001A600A4B1B689B01FBD5084B5A68032137
:100AC8008A435A60596802220A435A60034B5B689A
:100AD8000C221340082BF9D102B0704700100240D5
:100AE80000200240FF7FC0FF10B5124B1A68012199
:100AF8000A431A605868104A02405A6018680F4A38
:100B080002401A6018680E4A02401A6058680D4A76
:100B180002405A60DA6A0F208243DA62186B0A4A86
:100B280002401A635A6B8A435A6300229A60FFF79D
:100B380083FF10BD001002400CB8FFF8FFFFF6FE5F
:100B4800FFFFFBFFFFFFC0FFACFEFFFF10B51F4B11
:100B58005B680C221340042B07D0082B09D0002B0C
:100B680023D11B4A1B4B1A6022E0194A194B1A6001
:100B78001EE0164B5C685A68C0235B02A40C0F2069
:100B8800044002341A4204D113484443114B1C60F8
:100B98000EE00E4BDB6A0F21194001310C4800F0C2
:100BA80031FB44430B4B1C6002E0094A094B1A60B5
:100BB800064B5B681B090F221340084AD35CDBB263
:100BC800044A1168D940116010BDC04600100240A7
:100BD80000127A001400002000093D0004000020E3
:100BE80010B586B0012180204001FFF7E5FB01A97F
:100BF8000E4B0B8082235B004B80E023DB008B8055
:100C08000023CB800B81802292004A81C93AFF3AA7
:100C18008A81CB8107330B82054C2000FFF7F4FB58
:100C280001212000FFF7C6FC06B010BD00C0FFFF81
:100C38000030014070B582B001218020C002FFF76A
:100C480093FB28230093263B6A46137103265671AB
:100C580000249471D471094D69462800FFF7F8FA09
:100C6800102300930F3B6A46137156719471D47127
:100C780069462800FFF7ECFA02B070BD000400488E
:100C880070B505001022104B1A8502210F48FFF796
:100C9800CFFC012805D080210C48FFF7C9FC0028AB
:100CA800F3D10A4C29002000FFF7ACFC29002000F2
:100CB800FFF7A8FC80210548FFF7BAFC0028F9D106
:100CC8001022014B9A6170BD0004004800300140B9
:100CD8000C4B5A6A5A62D862998A0122114389B226
:100CE800998219880A4392B21A80064B1B8ADB073D
:100CF800FBD5044B1A8801218A431A801A8A8A4331
:100D08001A82704700040040F8B50E090F242140EC
:100D1800064380235B421F003743FFB201430C00A8
:100D28000B43DDB23000FFF7ABFF3800FFF7A8FF39
:100D38003000FFF7A5FF2000FFF7A2FF2800FFF70C
:100D48009FFF2000FFF79CFF0220FFF7C1FFF8BDBF
:100D580010B5040004E00134C9B24020FFF7D4FF05
:100D6800002161560029F6D110BDC04610B50228F1
:100D780001D0002300E04023194380235B4219433C
:100D8800C9B20020FFF7C0FF10BDC046084AD169AC
:100D980002230B43D361074B8C221A80064A1A851B
:100DA8006422DA62998A01220A4392B29A827047CF
:100DB80000100240000400407FBBFFFF10B5FFF7A2
:100DC80039FFFFF70DFFFFF7E1FF02210020FFF7D2
:100DD8009BFF28210020FFF797FF0C210020FFF739
:100DE80093FF06210020FFF78FFF01210020FFF766
:100DF8008BFF0220FFF76CFF06210120FFF7B6FFEB
:100E08000548FFF7A5FF06210220FFF7AFFF0348BB
:100E1800FFF79EFF10BDC0465C64000860640008D0
:100E2800F0B583B005000C1C1649201C00F09CFA94
:100E3800002807D01349201C00F038FC041C124F6E
:100E4800124E0AE01249201C00F07AFA002802D05B
:100E5800104F114E01E0114F0F4E201C01F000FC05
:100E680002000B003900684602F016FAE8B20021C9
:100E7800FFF77CFF6846FFF76BFF3000FFF768FF5E
:100E880003B0F0BD00007A44646400086C64000894
:100E98000000204170640008986300087864000826
:100EA8000E4A5369802189020B4353619023DB0565
:100EB8001A6803218A431A60DA688A43DA601A6872
:100EC80009318A431A60DA688A43DA601968044A81
:100ED80011401960D9680A40DA6070470010024072
:100EE800FFFCFFFF10B5114AD16901230B43D36101
:100EF8008023DB051A888C218A431A8000221A85F0
:100F0800013ADA62998A0122114389B29982084822
:100F1800C324A40001590902090A015180210902C8
:100F2800016099890A4392B29A8110BD001002406B
:100F380000E100E000220A4B9A600A4B99680232ED
:100F48001143996019680A431A60074BC121890047
:100F58005858064A02405A5020221A607047C04624
:100F6800000001400004014000E100E0FF00FFFF35
:100F780070B5174A9369802189020B439361154C18
:100F88008C232380144B18680138FA21890000F05B
:100F980039F980B2208596235B00E36201230122A0
:100FA800A2820E49C52080000D580D4A2A4080258E
:100FB800ED012A430A50802292030A60A2891A434B
:100FC80092B2A281228813439BB2238070BDC0468F
:100FD80000100240004401401400002000E100E03D
:100FE800FF00FFFF054AD369802189050B43D361C0
:100FF800034A116801230B43136070470010024035
:10100800007400400F4A9369802189000B43936163
:10101800802212060C4B9A600B4B9A6880231B06A1
:101028009A42F9D0084BDA68C02189010A43DA608C
:1010380001229A6299680A439A60034B1B68DB078E
:10104800FBD570470010024000240140084A91680F
:1010580004230B439360064B1B685B07FBD5044BCB
:101068001A6804218A431A60186C0004000C70473F
:101078000024014010B500F09FFF0C4900F016FB5A
:101088000B4900F0DDFCFE21890500F099F901F01B
:10109800E7FA084A084B00F0CDFF01F035FB034999
:1010A80000F0CEFC00F074F910BDC04600F07F459A
:1010B8009A99F93F9A9999999999074010B5FFF724
:1010C800C5FF0400FFF7D6FF064B9860200000F02C
:1010D80073FF054900F0EAFA044900F0B1FC044B3B
:1010E8001860ECE70074004000F07F4500409C4524
:1010F8009803002010B5FFF7D3FEFFF783FFFFF733
:1011080071FFFFF7EFFEFFF715FFFFF757FEFFF739
:101118002FFFFFF7D3FFC04610B58023DB051B8ADE
:10112800DB070DD50748FFF7DDFB8022D205138AC0
:1011380001218B431382118801230B439BB2138037
:1011480010BDC0468064000810B50C4B1B8ADB0735
:1011580013D50B4B19680120FFF762FE094B19687C
:101168000220FFF75DFE054A138A01218B43138293
:10117800118801230B439BB2138010BD004401402A
:101188009C0300209803002070B51A4B5B699B07ED
:101198002FD58023DB051B88DB0709D48022D205E5
:1011A80000235362118801230B439BB213801BE079
:1011B8008023DB051A8801218A431A805D6A0E4B59
:1011C800186800F0F9FE041C280000F0F5FE011C68
:1011D800201C00F06BFA011C084B1860FE208005EB
:1011E80000F064FA064B1860024A516902230B4367
:1011F800536170BD00040140140000209C030020CE
:10120800A0030020002243088B4274D303098B42B9
:101218005FD3030A8B4244D3030B8B4228D3030CBE
:101228008B420DD3FF22090212BA030C8B4202D360
:101238001212090265D0030B8B4219D300E0090A88
:10124800C30B8B4201D3CB03C01A5241830B8B4291
:1012580001D38B03C01A5241430B8B4201D34B037A
:10126800C01A5241030B8B4201D30B03C01A5241DF
:10127800C30A8B4201D3CB02C01A5241830A8B4264
:1012880001D38B02C01A5241430A8B4201D34B024D
:10129800C01A5241030A8B4201D30B02C01A5241B1
:1012A800CDD2C3098B4201D3CB01C01A5241830965
:1012B8008B4201D38B01C01A524143098B4201D39F
:1012C8004B01C01A524103098B4201D30B01C01ACA
:1012D8005241C3088B4201D3CB00C01A5241830844
:1012E8008B4201D38B00C01A524143088B4201D371
:1012F8004B00C01A5241411A00D2014652411046D1
:101308007047FFE701B5002000F006F802BDC046AF
:101318000029F7D076E770477047C0468446081C16
:101328006146FFE71FB500F047FB002801D4002104
:10133800C8421FBD10B500F0D3FA4042013010BDBD
:1013480010B500F039FB002801DB002010BD01209A
:1013580010BDC04610B500F02FFB002801DD0020AD
:1013680010BD012010BDC04610B500F0E1FA0028FC
:1013780001DC002010BD012010BDC04610B500F0F2
:10138800D7FA002801DA002010BD012010BDC046A0
:101398009E2110B5C905041CFFF7F0FF002803D1F2
:1013A800201C00F0E7FD10BD9E21201CC90500F09F
:1013B8005BFC00F0DFFD80231B069C466044F2E7DF
:1013C800F8B54A02430244004E00C50F240E280017
:1013D8009B09360EC90F92098D4259D0A01B0028CF
:1013E80000DC8DE0002E1AD1002A00D079E05A07DF
:1013F80004D00F221A40042A00D004335A0138D5E9
:101408000134FF2C00D189E028009B015B0AE4B27B
:101418005B02E4055B0A2343C0071843F8BDFF2CB1
:10142800E5D08021C9040A431B2800DD89E01600A5
:101438002021C640081A8240511E8A4132439B1A15
:101448005A0114D59B019E09300001F0E9F90538CD
:101458008640844265DC041B330020200134E340CD
:10146800041BA640721E964100243343BFE75A0767
:10147800BFD1DF082800FF2C2FD1002F00D187E033
:101488008022D20313003B435B025B0AFF24BFE7C1
:10149800A11B002949DD002E29D0FF2CA7D08026CA
:1014A800F60432431B2900DD8DE017002026CF40CB
:1014B800711A8A40511E8A413A439B185A01D6D55F
:1014C8000134FF2C64D0012276491A405B080B4096
:1014D80013438CE7031ECAD100207B025B0AE4B2E7
:1014E80096E701380028AAD0FF2C9DD17FE7002A73
:1014F80000D17CE701390029DFD0FF2CD2D176E773
:10150800002820D1601CC0B2012853DD80279E1A14
:10151800FF0437402FD0D61A0D0095E72800002386
:1015280076E7614B241A334061E700294DD1611CED
:10153800CEB2012E2FDDFF292AD09B185B080C00A4
:1015480055E701227BE7002C1BD1002B5BD0C04361
:1015580000280CD0FF2E7ED01B2800DD92E01D0055
:101568002024C540201A8340581E83412B43D31A98
:1015780034000D0064E7002E00D065E70020002449
:10158800ABE7FF2E67D08024E40440422343E3E71F
:10159800FF2400233CE7002C61D1002B7ED0002AD9
:1015A80000D124E79B185A0100D460E73E4A0C009A
:1015B80013401CE7002C1ED1002B2FD1002A66D027
:1015C80013000D0013E7012277E7002C1FD1002B31
:1015D8005AD0C94300290BD0FF2E50D01B295FDCFD
:1015E8001F002024CF40611A8B40591E8B413B437A
:1015F8009B18340062E7002B1CD1002A4AD0130044
:101608000D00FF24F3E6130034000D00EFE6FF2E73
:1016180035D08024E40449422343DFE7002A00D17F
:10162800E5E68027981AFF04074000D152E7D31A4D
:101638000D00DCE6FF24002A00D1D8E68020DB0874
:10164800C003034204D0D208024201D113000D00A6
:10165800DB00FF24CBE61300FF240D00C7E6002BB8
:101668000DD0FF24002A00D1C1E68021DB08C90380
:101678000B42EDD0D2080A42EAD11300E8E7130082
:10168800FF24B4E6012372E713003400AFE6002715
:10169800002022E780270020FF03F1E61300A6E6DA
:1016A8000123A5E7FFFFFF7DFFFFFFFBF0B55646CF
:1016B80044465F464D46F0B444024600C70F83B027
:1016C8008846650A360EBA463DD0FF2E22D0002342
:1016D800EC00802599469B46ED0425437F3E434612
:1016E8005C025800DB0F640A000E984636D0FF28CB
:1016F80030D080230021E400DB041C437F38301AFB
:101708000190484642460843724E800030587A405D
:1017180013008746002D44D108239946063B9B4673
:10172800DDE70122FF2000241A406402C305640A91
:10173800D2071C431443200003B03CBC9046994692
:10174800A246AB46F0BD002D20D104239946033BA9
:101758009B46C4E7002C17D1022102E0002C0AD1D5
:101768000121321A01924A4643460A435A489200D6
:1017780082587B409746200001F052F8431F76308C
:101788009C4040420021BAE70321B8E7280001F055
:1017980047F8431F9D4000237630464299469B46B2
:1017A8009DE70C239946093B9B4698E78024002235
:1017B800E403FF20B9E70024C2468B465A46534645
:1017C800022AAED0032A7DD0012A31D1012200207D
:1017D8001A400024A9E70122101A1B2856DD1A40D6
:1017E80000200024A1E78023DB031D424BD1802386
:1017F800DB032B435C02640A3A00FF2095E76D0186
:101808006001854230D2019A0024013A01921B22DC
:101818000127290064006D00002901DBA84201D8D6
:101828002D1A3C43013A002AF3D16A1E95412C43F4
:1018380001987F300028CEDD620704D00F222240B5
:10184800042A00D00434220103D5244A0198144004
:101858008030FE2800DD64E70122A401640AC0B2DA
:101868001A4062E72C00A9E72D1A1A220124CFE7B3
:101878006B02BCD500248023DB031C436402640A8A
:101888004246FF2051E71C42B3D1F4E72100202251
:10189800C140101A8440621E94410C43620704D070
:1018A8000F222240042A00D00434620104D5012208
:1018B80001201A40002438E70122A401640A1A40D2
:1018C800002032E78023DB031C436402640A52468B
:1018D800FF202AE794640008D4640008FFFFFFF79C
:1018E800430270B542004C005D0AC30F4802120E55
:1018F800460A240EC90FFF2A0FD0FF2C11D0012051
:10190800A24200D070BDB542FCD18B420DD0002A56
:10191800F8D12800431E9841F4E70120002DF1D1A9
:10192800EBE70120002EEDD1E9E70020EAE7C04609
:101938004302F0B542005D0AC30F4802440A48005A
:10194800120E000EC90FFF2A1FD0FF2822D0002A2E
:1019580009D16E426E4100280FD1002C0DD1002014
:10196800002D09D005E0002801D1002C01D08B42C0
:1019780013D0584201231843F0BD002EF7D0484237
:101988004141012049420843F6E7002DDDD00220FD
:101998004042F1E7002CDAD0F9E78242E9DC04DBC7
:1019A800A542E6D80020A542E6D25842434101208C
:1019B8005B421843E0E7C0464302F0B542004C00E2
:1019C8005E0AC30F4802120E450A240EC90FFF2AE9
:1019D80017D0FF2C19D0002A0BD170427041002C6F
:1019E80017D0002807D04842414101204942084306
:1019F800F0BD002C13D08B4214D058420123184359
:101A0800F6E70220002EF3D1E3E70220002DEFD104
:101A1800E1E7002DE5D10020002EE9D0EDE7002D0B
:101A2800E9D1EAE7A242E8DC04DBAE42E5D80020CF
:101A3800AE42DDD25842434101205B421843D7E70A
:101A4800F0B557464E4645464300E0B44602884640
:101A5800760A1F0EC40F002F47D0FF2F25D0002372
:101A680080259A469946F600ED042E437F3F43466B
:101A780042465D02D20F5B006D0A1B0E904640D0B5
:101A8800FF2B39D080220020ED00D20415437F3B84
:101A9800FB1842465746591C62408C4607430F2F95
:101AA8005CD86F49BF00C9598F46002E45D108231D
:101AB8009A46063B9946DAE7424602282DD0032883
:101AC80000D1C3E0012800D0A2E000250026024092
:101AD800D4B27602ED05760A2E43E4072643300099
:101AE8001CBC90469946A246F0BD002E1AD104238C
:101AF8009A46033B9946BAE72A00511E8A41901C30
:101B0800C6E70120002DC3D0280000F089FE431F3E
:101B180076309D4043420020BAE70124FF25144057
:101B28000026D6E7300000F07BFE431F9E400023CE
:101B3800763047429A46994699E70C239A46093BDC
:101B4800994694E780260024F603FF25C1E735006F
:101B58004846B2E7350022004846AEE72904090C9A
:101B68000800370C3604360C2C0C79437043674355
:101B78007443060C64183619B14203D9802149020E
:101B8800884647440004000C310409188D01681E7A
:101B98008541890E2943350CED19AD010D43290105
:101BA80004D5012369081D4063460D4319007F31A0
:101BB800002925DD680704D00F202840042800D01C
:101BC8000435280103D5274980330D401900FE2923
:101BD800A3DC0124AD016E0A1440CDB279E7802060
:101BE800C003064207D0054205D128434602760ABB
:101BF8004446FF256DE706437602760AFF2568E727
:101C08000124611A1B2905DD14400025002660E720
:101C18006346CBE72E002023CE40591A8D406B1E19
:101C28009D412E43730704D00F233340042B00D06B
:101C38000436730104D5012401251440002648E721
:101C48000124B601760A1440002542E780260124C3
:101C5800F6032E437602760A1440FF2539E7C0467C
:101C680014650008FFFFFFF7F8B54A024E0043026B
:101C78004400240EC50F9B09360EC90F9209FF2E8A
:101C880000D183E001204140A01BA9425CD000287C
:101C980000DC95E0002E1CD1002A00D081E05A0714
:101CA80004D00F221A40042A00D004335A013BD52D
:101CB8000134FF2C00D191E001209B015B0AE4B2C2
:101CC80005405B02E4055B0AED0723432B4318003C
:101CD800F8BDFF2CE3D08021C9040A431B2800DD8E
:101CE80090E016002021C640081A8240511E8A4101
:101CF80032439B1A5A0115D59B019E09300000F00A
:101D08008FFD0538864084426CDC041B330020209C
:101D18000134E340041BA640721E9641002433435D
:101D2800BDE70D005A07BCD1DF0801231D40FF2C79
:101D380033D1002F00D190E08022D20313003B431F
:101D48005B025B0AFF24BCE700284FDD002E2ED083
:101D5800FF2CA4D08025ED042A431B2800DD97E042
:101D680016002025C640281A8240501E8241324360
:101D78009B185A01D5D50134FF2C6DD001227B4820
:101D88001A405B08034013430D0088E7002A00D07F
:101D98007AE777E7031EC5D100257B025B0AE4B228
:101DA8008FE701380028A4D0FF2C97D177E7002AC5
:101DB80000D174E701380028DAD0FF2CCDD16EE7C6
:101DC800002821D1601CC0B2012858DD80279E1A46
:101DD800FF0437402FD0D61A0D008FE701231D408E
:101DE80000236EE7624B241A334058E7002851D18C
:101DF800601CC6B2012E33DDFF282DD09B185B086E
:101E080004004CE7012274E7002C1AD0FF2E1FD0E3
:101E18008024E404404223431B2800DD96E01D0093
:101E28002024C540201A8340581E83412B43D31ACF
:101E380034000D005EE7002E00D05FE70025002487
:101E4800ABE7002B44D0C0430028F0D0FF2EE3D1ED
:101E58001300FF240D0022E70D00FF24002330E7C4
:101E6800002C5DD1002B7DD0002A00D117E79B18EC
:101E78005A0100D456E73E4A040013400FE7002CED
:101E88001ED1002B2FD1002A65D013000D0006E7C4
:101E980001226DE7002C1FD1002B59D0C043002828
:101EA8000BD0FF2E4FD01B285EDC1D002024C54020
:101EB800201A8340581E83412B439B18340058E74F
:101EC800002B1CD1002A49D013000D00FF24E6E6A0
:101ED800130034000D00E2E6FF2E34D08024E40421
:101EE80040422343DFE7002A00D1D8E68027981A2A
:101EF800FF04074000D14DE7D31A0D00CFE6FF24B9
:101F0800002A00D1CBE68020DB08C003034204D0BE
:101F1800D208024201D113000D00DB00FF24BEE607
:101F2800002B10D0FF24002A00D1B8E68020DB085F
:101F3800C003034203D0D208024200D11300DB00E1
:101F48000D00FF24ABE61300FF24A8E601236EE78B
:101F580013003400A3E6002700251EE7802700258C
:101F6800FF03E9E613009AE60123A6E7FFFFFF7DDA
:101F7800FFFFFFFB4302590A4300C20F1B0E00205C
:101F88007E2B0EDD9D2B0DDC802000040143952B5C
:101F98000BDC9620C31AD9400B005842002A00D106
:101FA80018007047034BD018FBE7963B99400B008D
:101FB800F3E7C046FFFFFF7F70B5041E28D000F08E
:101FC8002FFC9E231B1A962B0ADC9622D21A9440C9
:101FD8006202520AD8B25202520AC005104370BDBA
:101FE800992B18DC9922D21A9440114A2240610791
:101FF80004D00F210C40042C00D00432510103D529
:102008000B4B1A409F231B1A9201520AD8B2E2E7DF
:1020180000200022DFE705222500121AB921D54049
:102028002200C91A8A40541EA2412C001443DCE73E
:10203800FFFFFFFBF0B556464D4644465F46F0B4F9
:102048001D000E034C00CB0F87B007009246814657
:10205800360B640D98466AD06D4B9C4235D0802271
:10206800430F12041343F6001E43C3009946694BFD
:1020780000279C460023644402932B0368001B0B33
:10208800ED0F51469B46400D009500D178E0604B1E
:1020980098426CD05B46DA004B0F802109040B4351
:1020A80013439B465346D9005A4B9C460023604431
:1020B8004246201A6A40924601901F430F2F00D9CA
:1020C800B0E05548BF00C0598746374300D088E084
:1020D800002399460233082700260293CDE743469A
:1020E800B34649460093029B009A9246022B00D0C1
:1020F800BFE1002153460122002689461A40444B7D
:10210800002136030C0D2405360B2643434C1B05D2
:1021180026401E437600D20776081643484631000B
:1021280007B03CBC90469946A246AB46F0BD33008A
:1021380003434FD0002E00D1BCE1300000F070FB0B
:1021480003000B3B1C2B00DDADE11D220100D31A5F
:1021580008393A008F408E40DA40B9461643304B72
:1021680000279C46002360444442029385E7534677
:102178005A4613432CD1002300219B46023397E78C
:102188000B4320D05B46002B00D19EE1584600F05F
:1021980047FB03000B3B1C2B00DD8FE10200594677
:1021A800083A91408B461D21CB1A5146D9400B0065
:1021B80059460B4351469B469140194B9C466044F7
:1021C8004042002374E7002300219B4601336FE758
:1021D80003236DE700239946013304270026029361
:1021E8004BE703230C27029347E70122D51A382D22
:1021F80000DCB0E153461A4000210023002689463E
:102208007EE700238026994600223603004B77E7B5
:10221800FF07000001FCFFFF54650008FFFF0F8067
:10222800F30300005E4500D972E100D16DE1019B26
:102238004D46013B01930023340002935B461E0286
:102248000B0E1E430B020393330C994633041B0CED
:10225800494620000093FEF7D5FF009B3700434313
:102268000600494620009846FFF752F82C0C09044E
:102278000C43A04509D9E419731EA74200D95CE1B3
:10228800A04500D859E1023EE4194346E41A4946FC
:102298002000FEF7B7FF0300009A804653434946E3
:1022A80020009B46FFF734F82A040904120C0A435D
:1022B80093450DD94346D219013B974200D93AE1DB
:1022C800934500D837E102235B429C46D219E0448B
:1022D8005B46D21A4346360433439B460399180C8F
:1022E8000B0C1D00059309045B46090C0C001B042C
:1022F8001B0C4443049159436B4368431B190D0C51
:10230800EB189C4203D980246402A44660441C0C48
:1023180009041B04090C20185D18824200D2DEE073
:1023280000D1D7E0161A029B9C465D1BAC459B4129
:102338005B42F61AB74200D106E149463000FEF783
:1023480061FF009B04004343494630009846FEF76E
:10235800DFFF2E0C09040E43B04509D9F619631E98
:10236800B74200D9F3E0B04500D8F0E0023CF619D6
:102378004346F31A494618000293FEF743FF009BB1
:1023880006004343494602989846FEF7C1FF2D04CC
:1023980009042D0C0D43A84509D9ED19731EAF4248
:1023A80000D9D6E0A84500D8D3E0023EED192404B0
:1023B800210043463143049E059A3000ED1A0B0470
:1023C8000C0C1B0C58436643534354439A19030C93
:1023D8009B189E4203D980225202944664441A0CE8
:1023E80000041B04000C14191B18A54250D34DD02F
:1023F80001231943964A019B94466344002B00DC51
:10240800F3E64A0709D00F220A40042A05D00A1D1C
:102418008A42894149428B4411005A46D20108D563
:102428005A468C4B1A4093468022D2009446019B10
:102438006344894A934200DD5BE65A46C90850075F
:1024480008435602514601225B058146360B5B0D57
:102458000A4055E680231B031E4211D05A461A42F1
:102468000ED15E461E433603360B2A0089467B4B47
:1024780046E6032B00D1E1E0012BBBD11A40BBE6B5
:102488001E433603360B4246744B39E6002BB1D057
:102498007D194A1EAF4252D91100A542A8D1039A0C
:1024A8009A42A5D1A6E703003E00283B9E400023A0
:1024B800994654E600F0B4F9203041E6030052464C
:1024C800283B9A400021934677E6504600F0A8F949
:1024D80020305EE6029B0026AB4200D323E7039E32
:1024E8000299B44661448846B045B6415B46764297
:1024F800F619B218013B0291974213D290424FD875
:1025080000D18EE0161A9B460DE7894500D28EE66B
:1025180074084B46F60735005B081D434B46DB073E
:1025280002938BE69742EDD10399029CA142E5D92B
:102538003E1A9B46F7E69846CAE61E00A5E6AC4258
:102548003ED874D0110053E70121494252E71C00DC
:102558000EE71E002BE71F2D3CDC20230A005846FF
:102568005B1B9840EA4099400243481E81415E4601
:102578001143EE404B0709D00F230B40042B05D025
:102588000B00191D99429B415B42F61833023CD55A
:102598005346012200211A40002601238946AFE54F
:1025A80002235B429C46039CE344A446029B63448B
:1025B8009846A045B6417642F6190293B218B1E69C
:1025C80003988A1E41008142B6417642F619AD1938
:1025D800039161E71F225242D31A5A46DA40130088
:1025E800202D29D040225846551BA8400143481E9B
:1025F800814107200B4318400026002809D00F22EC
:1026080000261A401900042ABBD10B007007760275
:10261800360BDB0803439946012253461A40002330
:102628006EE502998D42BBD89B4600267BE603984F
:102638009842C5D3110032E70020D7E780265B46D1
:1026480036031E433603360B009A8946034B57E57B
:10265800FF030000FFFFFFFEFE070000FF0700006A
:102668004200120E511C4302C9B270B55D0AC40F74
:10267800012915DDE02189008C466D071B0B62449A
:10268800002128000D0D2D052B431C4D52052B4014
:10269800520813435B00E4075B082343190070BD2D
:1026A800002A15D1002D1FD0280000F0B9F80A28FB
:1026B8001DDC0B232A001B1ADA4013000200153216
:1026C80095400F4A1B03121A52051B0B520DD7E7F0
:1026D800002D06D080221B0B120313436D07094AF5
:1026E800CEE7084A0023CBE700220023C8E703000F
:1026F8000B3B9D402B000025E3E7C046FFFF0F8002
:1027080089030000FF0700004B0070B55E0D0C0345
:10271800751C640A420F6D052243C90FC4006D0D74
:10272800012D2ADD3B4BF318FE2B1ADC002B42DD72
:102738008001451EA841D2001043620F0243500792
:1027480004D00F201040042800D004328020C00498
:10275800104021D00133FF2B03D09201520ADBB283
:1027680001E0FF2300225202520ADB0513435B00FB
:10277800C9075B080B43180070BD002E07D014432F
:10278800EFD08020D20080040243FF23D7E7224302
:102798000023002A03D00522D208FF2B03D05202BF
:1027A800520ADBB2DFE7002A32D08020C00302439E
:1027B8005202520AD7E71800173014DB80200004B1
:1027C80002431E20C01A1F280FDC2500124BF318E5
:1027D8009D406E1EB5419A402B0013432200C24013
:1027E8001A430023ABE70023D5E702256D42EB1A15
:1027F8001500DD40202809D0084BF3189A401443EF
:10280800621E9441220000232A4398E70022F6E73B
:102818000022A8E780FCFFFF82FCFFFFA2FCFFFF6D
:102828001C2101231B04984201D3000C10391B0AF8
:10283800984201D3000A08391B09984201D30009BC
:10284800043902A2105C40187047C0460403020213
:10285800010101010000000000000000014B1868A0
:102868007047C04678000020034B1B68186A002890
:1028780000D102487047C046780000207C00002044
:10288800034B10B51868FFF7EFFFEC30006810BD78
:102898007800002082B0002900D101A9101E09D0BB
:1028A800002B05D013780B601078431E984101E087
:1028B8000220404202B0704703008218934202D0BF
:1028C80019700133FAE77047032370B5CD1C9D4397
:1028D800083506000C2D01D20C2501E0002D01DB86
:1028E800A94202D90C23336048E0300001F0B6FB5E
:1028F800234B1C681A002100002913D00B685B1BAE
:102908000DD40B2B02D90B60CC181EE08C4202D1DF
:10291800636813601AE04B6863600C0016E00C00F3
:102928004968E9E7174C2368002B03D1300000F011
:10293800A1FC20602900300000F09CFC431C18D04A
:102948000323C41C9C43A0420DD12560300001F034
:1029580086FB200007220B30231D9043C31A0ED09C
:102968005A42E2500BE0211A300000F083FC431C6D
:10297800EBD10C233000336001F071FB002070BDF7
:10298800A8030020A4030020F0B58BB014001D1E7E
:10299800129906DA802424061B191D0014002D2321
:1029A80000E000230B702023149E03229E43462E32
:1029B80007D03300453B59424B411099013ACB1897
:1029C800109309AB049308AB0393139B00920293F3
:1029D800109B220001932B0000F050FD0700472EAA
:1029E80002D1119BDB072DD5109BFB180793462EB0
:1029F80014D13B78302B0CD1002200232000290071
:102A080002F01CF9002804D10123109A9B1A139A8A
:102A18001360139B079A1B68D3180793002200239F
:102A28002000290002F00AF93022002802D0079B72
:102A3800099307E0099B0799994203D9591C099101
:102A48001A70F7E73800099B159ADB1B13600BB067
:102A5800F0BDF7B52B2307000C000270861C002977
:102A680001DA2D234C427B70092C1CDD6B46DD1DE1
:102A780020000A2102F0CEF8013D303129702000F3
:102A88000A2101F0E1FF04000928F1DC013D30349E
:102A98002C706B4607333000AB4209D92B780135CF
:102AA80033700136F5E73023E4183370B01C7470C6
:102AB800C01BFEBDF0B595B00C000A920B931A9D91
:102AC800099001F0A1FA036818000D9300F006FCC4
:102AD8000023129323680E900C930C99277E2B6881
:102AE8000722C90501D59B1800E0073393431A0054
:102AF80008322A601A685B68A264E3640122E56C04
:102B0800A66C6B005B080F935242C04B30000F99C4
:102B180003F0CAFA002819D10122BC4B52423000F6
:102B28000F9902F09BF8002810D1002200233000F2
:102B3800290002F089F8002803D023002D2243330E
:102B48001A70B34D472F0ED8B24D0CE032002B004F
:102B58003000290003F0A8FA002800D19AE1AE4D10
:102B6800472F00D8AD4D03230C9A236101339A43B4
:102B78002260002642E0672F00D193E1472F00D161
:102B880090E10C9A0021134312AA059211AA03920C
:102B9800232223600691019308A9636852180292C0
:102BA800009332002B0004970998FFF7EDFE2023CD
:102BB8003A0005009A43472A00D18EE11199652F02
:102BC80000D996E1200001393A0050301191FFF701
:102BD80040FF129A060083182361012A00DD85E16F
:102BE8002268D20700D581E1232308AA9B181B7805
:102BF800002B03D023002D2243331A700B9B13AAFA
:102C0800009321000A9B099800F0A4F9431C02D103
:102C1800012040429BE12268530501D4236964E006
:102C2800652F00D8CCE0A06CE16C0022002302F0F4
:102C380005F800282CD00123794A0A9909980B9D98
:102C4800A847431CE4D0119B129A934208DB2368DF
:102C5800DB0705D4236800259B0700D50FE113E1A6
:102C68000B9D0E9B0D9A0A990998A8470025431CAD
:102C7800CED0129B013B9D42ECDA220001231A328E
:102C88000A9909980B9EB047431CC1D00135F0E75B
:102C9800119B002B2BDC0123614A0A9909980B9E92
:102CA800B047431CB4D0119B002B05D1129B002BBD
:102CB80002D12368DB07CDD50B9E0E9B0D9A0A998E
:102CC8000998B0470026431CA2D0119B5B429E4244
:102CD8000ADA220001231A320A9909980B9FB84789
:102CE800431C95D00136F0E7129B2A00ACE0A36D97
:102CF800129E9E4200DD1E00002E05DC00230C9370
:102D0800F343DB170F9315E033002A000A9909985B
:102D18000B9FB847431CF1D17AE7220001231A32EE
:102D28000A9909980B9FB847431C00D170E70C9B80
:102D380001330C930F9BA26D0C993340D31A99421F
:102D4800EBDBAE18119B129A93420DDB2368DB076D
:102D58000AD4129B119AED18AD1B9B1A9D4200DDF7
:102D68001D00002D09DC11E00E9B0D9A0A990998A7
:102D78000B9FB847431CECD14AE72B0032000A9955
:102D880009980B9EB047431C00D141E7EF43FB175E
:102D980000260C930AE0220001231A320A990998A6
:102DA8000B9FB847431C00D132E70136119A129B9A
:102DB8000C999B1A2A000A409B1A9E42EBDB49E7B2
:102DC800129B012B02DC01231A4245D001232A0061
:102DD8000A9909980B9FB847431C00D118E70E9B26
:102DE8000D9A0A9909980B9FB847431C00D10FE721
:102DF800A06CE16C0022002301F020FF002801D024
:102E080000251AE0129B6A1C013B26E0FFFFEF7FBA
:102E180002660008FE6500080A66000806660008E3
:102E28000E660008220001231A320A9909980B9F9E
:102E3800B847431C00D1EBE60135129B013B9D428C
:102E4800F0DB2200330050320A9909980B9DA847FD
:102E5800431C00D0FEE6DBE62A000A9909980B9D80
:102E6800A847431CEDD1D3E62200012319320A9961
:102E780009980B9EB047431C00D1C9E60135E368A9
:102E8800139A9B1A9D42EFDB139BE06898425EDA27
:102E980018005CE080236268DB00511C00D06AE601
:102EA800073202E0002A02D10122626069E60C9929
:102EB80008A80B430021069112A9059111A90391B5
:102EC800232109182360019300922B000497029193
:102ED80032000998FFF758FD0500119BDA1C02DB48
:102EE800626893421CDD023FFFB267E6013323614B
:102EF8007AE6662F15D16368002909DD2161002B68
:102F080002D12268D2071ED50133591821611AE06F
:102F1800002B03D101222168114213D09A1C11E021
:102F28006727119B129A934206DB22682361D20716
:102F380009D50133236106E00121002B01DC491882
:102F4800C91A8A182261119B0026A3654CE615B0A0
:102F5800F0BDC046F7B5170001938A680B69009069
:102F68000C00934200DA130022003B6043321278CF
:102F7800002A01D001333B6023689B0602D53B68D9
:102F880002333B60062523681D401ED023004333CF
:102F98001B785A1E9341226892061CD53020E118EE
:102FA8004331087021005A1C45310978A218433270
:102FB800023311700FE022000123193201990098A1
:102FC800089EB047431C0ED00135E3683A689B1A47
:102FD8009D42F0DBDAE72200019943320098089D10
:102FE800A847431C02D10120404220E00623206864
:102FF800E1683A6803400025042B03D18D1AEB439E
:10300800DB171D40A3682269934201DD9B1AED1866
:103018000027BD420AD0220001231A3201990098E4
:10302800089EB047431CDED00137F2E70020FEBD02
:10303800F0B58BB006920A004332079305900492CC
:103048000A7E0C00109B6E2A00D1ABE011D8632ACF
:1030580022D009D8002A00D1B5E0582A00D0C5E00E
:1030680045310A70814A4FE0642A1DD0692A1BD075
:10307800BCE0732A00D1AAE009D86F2A29D0702AA7
:1030880000D0B3E0202209680A43226037E0752A9D
:103098001FD0782A33D0A9E00E001A684236111DD5
:1030A800196013683370A4E021681A68080606D40A
:1030B800490604D5111D19600023D55E02E0111DD3
:1030C80019601568002D3BDA2D23049A6D421370A0
:1030D80036E021681A68080606D4490604D515683A
:1030E800111D1960ADB202E0111D196015685F4B22
:1030F800227E039308276F2A1DD00A271BE022008F
:103108007821453211705A4A19680392081D2268BD
:1031180018600D68100602D4500600D5ADB2D3076A
:1031280002D520231A4322601027002D03D1202323
:1031380022689A4322602300002243331A7002E077
:103148000A274A4B03936368A360002B09DB042218
:10315800216891432160002D05D1049E002B11D0D8
:103168007BE0002D79D0049E28003900FEF7D0F8C6
:10317800039B013E5B5C280033703900FEF742F880
:10318800051EF1D1082F09D12368DB0706D563682E
:103198002269934202DC3023013E3370049B9B1B5F
:1031A80023612BE009681A68080607D4490605D583
:1031B800111D19601368A28A1A8004E0111D196094
:1031C800136862691A600023049E236116E01A6876
:1031D800111D1960166800216268300000F02AFF8E
:1031E800002801D0801B6060636803E02600423637
:1031F8003270012323610023049A1370079B09AAE4
:1032080000932100069B0598FFF7A4FE431C02D1FA
:103218000120404227E02369320006990598079D5E
:10322800A847431CF4D0236800259B070FD4099BAB
:10323800E068984217DA180015E0220001231932D5
:1032480006990598079EB047431CE1D00135E3680D
:10325800099A9B1A9D42F0DBE9E72600039B423658
:103268001B7833708EE70BB0F0BDC04610660008BF
:1032780021660008002370B5064C0500080023608D
:10328800FDF716FA431C03D12368002B00D02B60EE
:1032980070BDC046AC0300200EB410B59DB002A9A5
:1032A800029008610B4882248860486101204042EE
:1032B8001FABC881084804CBA400006801938C8127
:1032C80001F074FA0023029A13701DB010BC08BCF8
:1032D80003B01847FFFFFF7F780000200023C25C7F
:1032E8000133002AFBD1581E704730B514009BB03B
:1032F80005001A00002C04DA8B23036001204042E9
:103308001CE0822368469B0083810023009104917E
:103318009C4200D0631E02930593012369465B42D9
:10332800CB8128001E9B01F041FA431C01DA8B2354
:103338002B60002C02D00023009A13701BB030BD04
:1033480007B5009313000A00010002480068FFF760
:10335800CCFF0EBD780000200B1E07D0FF2A03D932
:103368008A2303608B3B01E001230A701800704731
:10337800F0B503690C6989B00700059100269C42E5
:1033880079DC0B00013C1433A50003935B1904930B
:103398000300143302935D19049B28681B68591CA9
:1033A8000193FDF72FFF0190B04233D0039B0298A1
:1033B8009C460696634604CB9C46019B91B25943B2
:1033C800120C5A4389190B0CD3180793069A1E0C32
:1033D800038889B29B1802685B1A110C6A46928BA3
:1033E8008A1A1914521811149BB21204134308C0F4
:1033F800049B06916345DDD22B68002B0AD1029B02
:10340800043DAB4201D33C6104E02B68002BFAD1A8
:10341800013CF4E70599380001F032F8002829DB6F
:103428000020019B02990133039A019340CA0B883B
:103438001818B3B2C31A0868360C000C801B1D1488
:10344800451928149BB22D042B4308C1049B9342B1
:10345800ECD2029AA300D3181A68002A0AD1029A59
:10346800043B9A4201D33C6104E01A68002AFAD16D
:10347800013CF4E7019E300009B0F0BDF0B516003C
:103488001F00446A9DB00490259D06960797002C5E
:1034980008D1102000F0C4FD049B58624460846089
:1034A8000460C460049B5B6A196800290BD05A68E1
:1034B800012393404A608B60049800F009FE0022C3
:1034C800049B5B6A1A60079B002B05DA01232B60BB
:1034D8007B005B08079301E000232B60079CC84B27
:1034E800220019931A409A4219D1C64B249A1360A4
:1034F800069AC54B002A02D1240300D1C34B269A51
:103508001800002A01D100F07DFDD978DA1C0029C5
:1035180000D00532269918000A6000F073FD069E57
:10352800079F002200233000390001F087FB051EA9
:103538000ED00123249A1360B54B269A1800002A4E
:1035480001D100F05FFDB34A26990A6000F05AFDE8
:103558001AAB01931BAB009332003B00049801F0B7
:1035680015F8630005905B0D09D03A03AA4C120BBD
:103578001443AA4A300021009E1817951AE01A9B96
:103588001B9A9E18A64BF318202B08DDA54A06980F
:10359800B218D0404022D31A9C40204303E0202296
:1035A8000698D31A984002F017FE01239E4C013E5C
:1035B8000919179300229D4B02F022FA9C4A9D4B51
:1035C80001F0A4FF9C4A9D4B01F066FB040030000B
:1035D8000D0002F0BFFD9A4A9A4B01F097FF0200D6
:1035E8000B002000290001F057FB04000D0002F039
:1035F8007BFD0022039000232000290001F024FB1A
:1036080000280DD0039802F0A5FD02000B00200051
:10361800290001F013FB43424341039AD31A039351
:1036280001231693039B162B11D88749DB00C91871
:1036380008684968069A079B01F01AFB002805D01C
:10364800039B013B03930023169300E016901A9BFB
:103658009E1B00230B93013E0C9604D50C9B5B42EA
:103668000B9300230C93039B002B08DB039A0C9B02
:10367800944663440C9300231192089307E00B9B34
:10368800039A9B1A0B935342089300231193229B8E
:103698000125092B25D8052B02DD0025043B2293A3
:1036A800229B981E032824D801F0C4F9060E0204B0
:1036B800012302E0012308E000231093239B002B41
:1036C80020DD1F000A9321E00023239A1093039B17
:1036D8009F187B1C0A930123FA18002A16DD130091
:1036E80014E0012700237F42229310950A97123392
:1036F80005E0012701237F4210930A971133002226
:10370800239203E001273B000A972397049A546AFF
:1037180000226260043211001431994204D86168B1
:10372800520001316160F6E76168049800F098FC86
:10373800049B20605B6A1B680D930A9B0E2B00D9C3
:1037480081E1002D00D17EE1069B079C149315941E
:10375800039B002B31DD0F223B491340DB00CB18C4
:103768005C681B680E930F94039B02241D11EB06E3
:103778000AD514981599354B15401A6A5B6AFEF7F5
:1037880059FC069007910134304E002D0ED00123CC
:103798001D4208D00E980F99E4183268736801F03A
:1037A800B5FE0E900F916D100836EEE70E9A0F9B3E
:1037B80006980799FEF73EFC4CE0039B02245D4205
:1037C800002D49D0149815990F231F4A2B40DB0070
:1037D800D3181A685B6801F099FE002306900791D8
:1037E8001A4E2D11002D33D00122154205D0A418F0
:1037F8003268736801F08AFE01236D100836F1E71C
:103808000000F07F0F2700003C67000833670008BE
:103818000E6600080F6600080000F03F01FCFFFF7D
:103828003204000012040000000010FE0000F83FFF
:1038380061436F63A787D23FB3C8608B288AC63FAE
:10384800FB799F501344D33F40670008086800087D
:10385800002B01D006900791169B002B1DD0069DCA
:10386800079E0022C74B2800310001F0EDF900281F
:1038780013D00A9B002B10D0002F00DCDFE0039B45
:103888003100013B0E930022BF4B280001F03EFEA1
:103898000134069007913E0002E0039B0A9E0E93B6
:1038A800200002F057FC069A079B01F02FFE002229
:1038B800B64B01F0F1F9B64A12901391129C139D80
:1038C8009446139B634418931D00002E1CD1069840
:1038D80007990022AF4B02F093F82200189B06903C
:1038E800079101F0C5F9002800D054E2AA481399BD
:1038F800844661440B0006980799220001F0A4F958
:10390800002800D03DE29AE0109A731EA349DB001C
:10391800002A49D0CB181A685B680020A049FEF736
:1039280089FB2B00220002F06BF8129013910D9D79
:103938000698079902F0D8FB040002F00BFC02007D
:103948000B000698079902F05BF801356B1E3034BE
:103958001C70129A139B0690079101F075F90028C4
:1039680000D02EE3069A079B0020864902F048F80B
:10397800129A139B01F068F9002800D0C7E00D9B4C
:10398800EB1AB3425BDA1298139900227E4B01F0CE
:10399800BDFD002212901391069807997A4B01F009
:1039A800B5FD06900791C3E7C91822000868496861
:1039B8002B0001F0ABFD0D9C12901391A5190698F0
:1039C800079902F091FB060002F0C4FB02000B000D
:1039D8000698079902F014F83036267001340690DC
:1039E80007910022A54222D16D4B1298139901F03C
:1039F80053F902000B000698079901F039F90028DD
:103A080000D084E0129A139B0020654901F0F8FF6A
:103A180002000B000698079901F016F900280ED04D
:103A28006B1E1A78302A00D0CBE21D00F8E7069802
:103A38000799554B01F06AFD06900791BFE7149B63
:103A4800159C069307941B9B002B00DA81E0039AD0
:103A58000E2A00DD7DE0D300504AD3185C681B684D
:103A680008930994239B002B15DA0A9B002B12DC80
:103A780000D088E1089809990022464B01F046FDDC
:103A8800069A079B01F0FEF80A9B08931E0000287F
:103A980000D07BE182E10D9D069E079F089A099B55
:103AA80030003900FEF7C6FA02F01EFB040002F0EF
:103AB80051FB089A099B01F029FD02000B00300018
:103AC800390001F09DFF220001356B1E30321A705B
:103AD8000D9B0A9AEB1A9A422ED102000B0001F0B4
:103AE800DBF806000F0002000B000898099901F0A6
:103AF800ABF800280FD10898099932003B0001F073
:103B08009DF8002800D15EE2E30704D45BE20E9B37
:103B1800039300E01D006B1E1A78392A08D10D9A0C
:103B28009A42F7D1039A0D990132039230220A7012
:103B38001A7801321A7046E20022134B01F0E6FCB3
:103B48000022002306000F0001F078F80028A5D015
:103B580039E2109A002A44D0229A012A0BDC179ADB
:103B6800002A02D00F4A9B1802E036231A9A9B1AA1
:103B7800089D0B9C29E00A9B5D1E089BAB4213DB4A
:103B88005D1B18E00000F03F0000244000001C40CE
:103B98000000C0FC000014400000C07C4067000822
:103BA8000000E03F33040000089B0895EA1A00254E
:103BB800119B9B1811930A9B002B04DA0B9B0A9A02
:103BC8009C1A002301E00B9C0A9B0B9A0121D21836
:103BD8000B920C9A0498D3180C9300F019FB06006A
:103BE80002E0089D0B9C109E002C0ED00C9B002B15
:103BF8000BDD0C9A2300944200DD13000B9AE41AA3
:103C0800D21A0B920C9AD31A0C93089B002B20DD26
:103C1800109B002B17D0002D11D031002A000498DA
:103C280000F088FB059A01000600049800F0F9FAF4
:103C380005990E90049800F04BFA0E9B0593089B8B
:103C48005A1B06D000E0089A0599049800F072FB08
:103C580005900121049800F0DBFA119B0890002BD5
:103C680000D1C0E11A000100049800F063FB229B18
:103C78000890012B17DC0025069BAB420ED1079B51
:103C88001B03AB420AD1199B079A134206D00B9B20
:103C9800013501330B930C9B01330C93119B0120CD
:103CA800002B0DD000E00025089B089A1B690E9395
:103CB80003339B00D318586800F060FA2023181AC1
:103CC8000C9BC0181F23184009D001331B1A042B62
:103CD80002DD1C23181A03E0042B08D018001C303E
:103CE8000B9B24181B180B930C9B1B180C930B9BFA
:103CF800002B05DD1A000599049800F06FFB05906C
:103D08000C9B002B05DD1A000899049800F066FB4F
:103D18000890169B002B1DD00899059800F0B0FB61
:103D2800002817DA039B0A22013B03930599002315
:103D3800049800F0E6F9109B0590002B00D159E19A
:103D4800310000230A22049800F0DBF90600002F56
:103D580037DC33E00A9B0A9F002B2ADC229B022BCC
:103D680027DD002F12D108993B000522049800F0A6
:103D7800C8F908900100059800F082FB00280DDCC6
:103D880004E0089602E000231E000893239B0D9D83
:103D9800DB4303930AE00E9B089603930D9B0D9A51
:103DA8005D1C31231370039B013303930A9600268D
:103DB800F3E0109B002B04D10D9DB5E0229B022B54
:103DC800CFDC002C05DD31002200049800F006FB52
:103DD80006000A96002D12D07168049800F040F988
:103DE8003100040033690C319A1C92000C3000F049
:103DF8002CF901222100049800F0F0FA0A900D9B9A
:103E08007D1E0B935B190E9308990598FFF7B0FA7E
:103E1800310010900400059800F032FB0A9A050062
:103E28000899049800F047FB01230C93C3683034C9
:103E38000700002B04D10100059800F021FB0C902D
:103E48003900049800F044F90C9B229A134308D1D6
:103E5800069A0133134204D1392C2AD0002D1CDCD8
:103E68001DE0002D06DB229B1D431BD10123069A72
:103E7800134217D10C9B002B11DD059901220498E0
:103E880000F0ACFA0899059000F0FAFA002802DC74
:103E980005D1E30703D5392C0BD0109C31340B9B8B
:103EA8005D1C0FE00B9B5F1C0C9B002B0CDD392C61
:103EB80005D10B9B0B9A5D1C3923137057E03D000D
:103EC8000B9B01341C7068E00B9B0E9A3D001C7024
:103ED80093423CD000230A220599049800F011F976
:103EE8000A9B05909E4208D1310000230A220498BB
:103EF80000F007F906000A900DE0310000230A22BD
:103F0800049800F0FEF8002306000A220A99049893
:103F180000F0F7F80A900B9776E700230A22059934
:103F2800049800F0EEF8059008990598FFF720FA34
:103F38000D9B3030287001350400EB1ABB42ECDBD6
:103F48003D1E00DC01250A9600260D9B5D1905998A
:103F58000122049800F042FA0899059000F090FABE
:103F6800002804DC13D1E30701D410E01D006B1E08
:103F78001A78392A08D10D9A9A42F7D1039B01334E
:103F880003933123137008E001321A7005E06B1EA9
:103F98001A78302A01D11D00F9E70899049800F031
:103FA80097F80A9B002B0ED0002E05D09E4203D016
:103FB8003100049800F08CF80A99049800F088F809
:103FC80001E00E9B03930498059900F081F8002303
:103FD8002B70039B249A01331360269B0D98002BAA
:103FE80010D01D600EE0229B012B00DC43E6119DE2
:103FF800012065E6002F00DDDEE6229B022B00DCB7
:10400800DAE6AEE61DB0F0BD034B1B68186A00285F
:1040180000D10248F0307047780000207C00002072
:1040280010B5034B01001868FEF74EFC10BDC046E2
:1040380078000020C9B28218904204D003788B42DD
:1040480002D00130F8E700207047002310B59A42EB
:1040580003D0CC5CC4540133F9E710BD70477047F6
:1040680070B5466A04000D00002E07D11020FFF736
:10407800D7FF6062466086600660C660666AF3685D
:10408800002B09D0636AAA00DB689B18186800280F
:104098000ED002681A6017E021220421200000F0E7
:1040A800C9FA636AF060DB68002BEBD100200EE0F0
:1040B80001210E00AE40721D9200200000F0BAFAF5
:1040C8000028F3D04560866000230361C36070BD9B
:1040D80070B5456A06000C00002D07D11020FFF7C7
:1040E8009FFF7062456085600560C560002C07D041
:1040F800726A6368D2689B00D3181A6822601C60D1
:1041080070BDF7B5070008000C000D691E000021FE
:1041180001921430019A0388013153439B190668B0
:10412800360C56431A0C9446B4446246160C1204D4
:1041380094469BB2634408C08D42EBDC002E1BD032
:10414800A3689D4212DB63683800591CFFF788FF9B
:104158002100236901909A1C92000C310C30FFF762
:1041680074FF21003800FFF7B3FF019C2B1D9B0053
:10417800E31801355E6025612000FEBD00220300C2
:10418800010C914201D103041032190E01D10832F9
:104198001B02190F01D104321B01990F01D1023200
:1041A8009B001000002B03DB20205B0000D5501C77
:1041B80070470722036810B501001A400CD001248B
:1041C8000020234223D10222134203D0E3402000DF
:1041D8000B601CE09B0818E098B2002801D110225F
:1041E8001B0CD8B2002801D108321B0A180701D1CC
:1041F80004321B09980701D102329B08D80704D45E
:104208005B082020002B02D0013210000B6010BD8B
:1042180010B50C000121FFF723FF0123446103615E
:1042280010BDF0B50B691400126989B00D009342F6
:1042380001DA25000C002F692669AA68BB1969688C
:104248000193934200DD0131FFF70AFF0200BB1919
:1042580014329B00D3189C4600211300029063453A
:1042680001D202C3FBE71435BF00EB191434B600C2
:104278000593A31903950793079B9C4251D2208865
:1042880000281ED015000026039F08CF069504932A
:104298006B461B8A434319002B88CB1804999B193A
:1042A800090C41432E68360C89191E0C89190E0C0D
:1042B8009BB209040B4308C5059BBB42E5D8069B86
:1042C8005E6023681D0C1FD0002110001368039F37
:1042D80004913E8801686E43090C7118049E9BB2D4
:1042E80089190E043343036008CF86881B0C6B437F
:1042F800090C9B195B18190C049105990690043058
:10430800B942E6D806994B6004340432B4E7042372
:104318005B429C4463461B68002B05D1019B013B13
:104328000193019B002BF2DC029B019A18001A6191
:1043380009B0F0BD0323F7B5134005000E001400C3
:10434800002B08D02349013B9A0052580023310022
:10435800FFF7D7FE0600A310019338D06C6A002C33
:1043680007D11020FFF75CFE686244608460046037
:10437800C4606F6ABC68002C10D117492800FFF789
:1043880047FF0023B8600400036007E0019B5B104F
:1043980001931CD02068002810D004000122019B42
:1043A8001342F3D0310022002800FFF73AFF07003C
:1043B80031002800FFF78CFE3E00E7E722002100CD
:1043C8002800FFF72EFF002320600360E5E7300098
:1043D800FEBDC0463068000871020000F0B50C0050
:1043E80017002369551185B0EB1801930133009329
:1043F8004968A3680290009A934202DA01315B008F
:10440800F9E70298FFF72CFE0023020006001900C6
:104418001432AB4203DA980011500133F9E7EB4349
:10442800DB171D402300AD00551922691433920093
:104438009A1894461F22174014D00132D21B0392B7
:10444800002219682800B9400A4304C504CB03991F
:10445800CA409C45F5D84260002A07D0019B023328
:10446800009303E004CB04C59C45FBD8009B02984D
:10447800013B33612100FFF72BFE300005B0F0BD92
:1044880003690A6910B59B1A0400181E12D193001B
:1044980014341431E218C918043A04391368086846
:1044A800834204D083429B410120184302E0944296
:1044B800F2D3002010BDF0B50C0085B00700110044
:1044C80020001500FFF7DCFF061E07D101003800A9
:1044D800FFF7C6FD01234661036155E00023019300
:1044E800984204DA23002C001D000123019361681F
:1044F8003800FFF7B5FD019B26692F00C36014340F
:10450800B300E318020002932B69002514379B00BF
:10451800FB180393143208CC69469C4608CF043232
:10452800009363468B808B885D19009B9BB2EB1AC6
:1045380065460193009B2D0C190C019B691A1D14EB
:10454800131F9C466B4649199B880D1409040B439D
:1045580061460B60039BBB42DDD8029913008C4275
:104568000BD202CC8BB25B191D14090C49190D141E
:104578009BB209040B4308C2EFE7043B1A68002A00
:1045880001D1013EF9E7066105B0F0BDF7B51D00A0
:104598000121089F1400FFF763FD2B036D0006003F
:1045A8001B0B6D0D02D08022520313430193002C84
:1045B80018D068460094FFF7FCFD009C002809D03D
:1045C800019B20211A00091A8A40C34022437261C4
:1045D800019300E07461019CB461631E9C41013445
:1045E800346107E001A8FFF7E4FD0124019B346171
:1045F80073612030002D06D00B4BED1835232D1894
:104608003D60181A0BE0094BC018094B3860E318D5
:104618009B00F3185869FFF7B1FD6401201A099B44
:1046280018603000FEBDC046CDFBFFFFCEFBFFFF8C
:10463800FFFFFF3F4A4370B511001400FEF744F92D
:10464800051E03D022000021FEF736F9280070BDB0
:1046580070B50500002944D00C1F2368002B00DA30
:10466800E4182800FFF7FAFC1E4A13681100002B13
:1046780002D16360146031E0A3420DD92268A0180A
:10468800834203D118685B688218226063600C60FB
:1046980024E0A24203D813005A68002AF9D11E6800
:1046A8009819A0420BD121687118581819608242D4
:1046B80014D110685268411819605A600EE0A0427F
:1046C80002D90C232B6009E021686018824203D1CB
:1046D800106852684118216062605C602800FFF72A
:1046E800BEFC70BDA8030020F0B58E6885B0070039
:1046F8000C00039201939E4243D890238A89DB00E1
:104708001A423ED003250969236801985B1A02936F
:1047180063695D43EB0F5D19029B6D1001331B1834
:10472800AB4200D91D00530510D529003800FEF70B
:10473800CBF8061E14D0029A2169FFF786FCA289DD
:10474800194B134080221343A38112E02A0038003A
:1047580000F03FF9061E0CD121693800FFF778FFF9
:104768000C23402201203B60A38940421343A381CC
:1047780017E0029B2661F61826606561019EED1A16
:10478800A560019BB34200D21E0032000399206845
:1047980000F00AF90020A3689B1BA36023689E19F8
:1047A800266005B0F0BDC0467FFBFFFFF0B59FB0A7
:1047B800029005938B890F0016001B0610D50B6914
:1047C800002B0DD14021FEF77FF8386038610028B2
:1047D80004D10C23029A01381360D8E040237B618E
:1047E800002306AD6B6120336B761033AB76340053
:1047F8002378002B03D1A31B049312D003E0252BAD
:10480800F9D00134F4E7A31B320039000298FFF70E
:104818006BFF431C00D1B4E06A69049B944663446F
:104828006B612378002B00D1ABE0012200235242B8
:104838006A6002A95432521801342B60EB60AB60F5
:104848001370AB65534E217805223000FFF7F2FB59
:10485800002807D00123801B83402A6801341343B2
:104868002B60EFE72B68DA0604D55322202102A833
:10487800121811701A0704D553222B2102A81218F6
:10488800117022782A2A03D0099B00200A210EE001
:10489800059A111D12680591002A01DB099204E0AE
:1048A8005242EA60022213432B6001340BE0227863
:1048B800303A092A04D84B4301349B180120F6E703
:1048C800002800D0099323782E2B1ED163782A2B39
:1048D8000AD1059B02341A1D1B680592002B01DAC8
:1048E80001235B42079310E000230A201A000134D9
:1048F8006B6021783039092904D8424301345218B1
:104908000123F6E7002B00D00792234E21780322DB
:104918003000FFF78FFB002806D04023801B834020
:104928002A68013413432B60217806221B48661C31
:104938002976FFF77FFB002812D0194B002B06D1F0
:104948000722059B073393430833059314E005AB0F
:1049580000933A00134B29000298FEF7ABF807E0E2
:1049680005AB00933A000F4B29000298FEF760FB55
:104978000390039B013304D06B69039A9B186B6106
:1049880035E7BB890B985B0601D5012040421FB073
:10499800F0BDC0463C680008426800084668000848
:1049A800BD2A0008F146000810B5884202D98B18C4
:1049B800984201D3002305E09B1A013A08D3995C79
:1049C8008154FAE7934203D0CC5CC4540133F9E72D
:1049D80010BDF8B506000C001500002904D111001F
:1049E800FDF772FF040018E0002A03D1FFF730FE3C
:1049F8002C0012E000F013F885420ED9290030008F
:104A0800FDF762FF071E07D021002A00FFF71DFBF4
:104A180021003000FFF71CFE3C002000F8BD0B1FF2
:104A28001A68101F002A04DA891804390B68D0188C
:104A38000438704702B4714649084900095C4900C6
:104A48008E4402BC7047C04603460B437FD4002205
:104A580043088B4274D303098B425FD3030A8B420A
:104A680044D3030B8B4228D3030C8B420DD3FF2274
:104A7800090212BA030C8B4202D31212090265D042
:104A8800030B8B4219D300E0090AC30B8B4201D3F5
:104A9800CB03C01A5241830B8B4201D38B03C01A3C
:104AA8005241430B8B4201D34B03C01A5241030BB3
:104AB8008B4201D30B03C01A5241C30A8B4201D364
:104AC800CB02C01A5241830A8B4201D38B02C01A0F
:104AD8005241430A8B4201D34B02C01A5241030A86
:104AE8008B4201D30B02C01A5241CDD2C3098B426B
:104AF80001D3CB01C01A524183098B4201D38B01E8
:104B0800C01A524143098B4201D34B01C01A52418A
:104B180003098B4201D30B01C01A5241C3088B42CF
:104B280001D3CB00C01A524183088B4201D38B00BA
:104B3800C01A524143088B4201D34B00C01A52415C
:104B4800411A00D201465241104670475DE0CA0F33
:104B580000D04942031000D34042534000229C46F3
:104B680003098B422DD3030A8B4212D3FC228901FD
:104B780012BA030A8B420CD3890192118B4208D3D3
:104B8800890192118B4204D389013AD0921100E035
:104B98008909C3098B4201D3CB01C01A5241830949
:104BA8008B4201D38B01C01A524143098B4201D376
:104BB8004B01C01A524103098B4201D30B01C01AA1
:104BC8005241C3088B4201D3CB00C01A524183081B
:104BD8008B4201D38B00C01A5241D9D243088B4271
:104BE80001D34B00C01A5241411A00D20146634614
:104BF80052415B10104601D34042002B00D5494278
:104C0800704763465B1000D3404201B50020FCF7B3
:104C180083FB02BD0029F8D016E770478446101CB4
:104C280062468C46191C634600E0C0461FB500F07A
:104C380003FC002801D40021C8421FBD10B500F0B4
:104C480057FB4042013010BD10B500F0F5FB0028BD
:104C580001DB002010BD012010BDC04610B500F0DA
:104C6800EBFB002801DD002010BD012010BDC0466F
:104C780010B500F07DFB002801DC002010BD0120EC
:104C880010BDC04610B500F073FB002801DA002003
:104C980010BD012010BDC046F8B556465F464D46CA
:104CA8004446F0B40F00FD0FAA4609037C002E000D
:104CB8005F00450F490A7F0D2943C5001803BC460C
:104CC800400A570F640DDB0F3843D2009A4500D1D4
:104CD800AAE06646A61B002E00DCFFE06346002B18
:104CE80039D10300134300D0D9E06B0709D00F2353
:104CF8002B40042B05D02B1DAB42AD416D42491909
:104D08001D000B0200D482E0CA4B01349C4200D142
:104D1800FEE00A005646C84BED081A4050076405E5
:104D280052020543120B640D002112030B0D1B05E3
:104D38006405120B1A436308C04CF60714401C4361
:104D4800640064083443280021003CBC904699461E
:104D5800A246AB46F8BDB74B9C42C6D080231B0485
:104D68001843382E00DDEBE01F2E00DD1EE1202366
:104D78009B1B9C4603006746BB409846130047466A
:104D8800F3403B436746BA40571EBA4113430200FB
:104D9800F240EB1A9D42B6411D008A1A7642911BD9
:104DA8000B0231D54A02560A002E00D1B4E0300079
:104DB800FDF736FD0300083B1F2B00DDB5E0202280
:104DC8002900D21AD1409E400A009D4032439C429D
:104DD80000DDB1E01C1B631C1F2B00DDD5E020218A
:104DE80014002800C91A8C40D8408D400443DA408A
:104DF800681E854111002543002476E7414631436A
:104E080000D134E2310045466B0700D06FE75646C3
:104E18004807ED08C9080543864B9C4235D00A036C
:104E28006405120B640D7FE76346E31A9B46002B6B
:104E380000DC8BE06746002F3CD07E4FBC4200D19F
:104E480053E780273F0438435B46382B00DCF7E004
:104E58000243501E82410020D2B253194218AB427D
:104E680089411D00494289180B02CDD5714B013487
:104E78009C4200D13DE101206F4A6B080A4028405E
:104E88001843D507054351082FE72B000B4300D1E2
:104E9800CBE180231B030B431A03120B44E7013EAB
:104EA800002E6DD1AE1AB5429B41091A5B42C91A50
:104EB800350075E70700174300D116E701235B4269
:104EC8009C46E3445B46002B00D0E0E0AA18AA42C7
:104ED8009B4109185B4259181500C5E7002E75D18A
:104EE800661C7605760D012E00DCF3E0AE1AB0469E
:104EF8004545BF410E1A7F42F61B370200D48FE0AA
:104F0800551BAA42B641411A76428E1B9A464BE778
:104F180056460022002507E72800FDF781FC2030CF
:104F28000300083B1F2B00DC49E72A002838824091
:104F380000259C4200DC4DE73F49E41A1140D4E6C5
:104F48000243501E8241D3B2002222E7002B00D038
:104F5800F3E0631C9C465B055B0D012B00DC9FE0C6
:104F6800344B9C4500D1C3E0AA180918AA428041D5
:104F780040424118CD075208154349086446B4E633
:104F88002C4B9C4200D0ECE6AFE611001F3CE14000
:104F98000C00202B00D17FE04021CB1A9A4015430A
:104FA8006A1E95410021254300242DE733000700A0
:104FB800203BDF403B00202E70D04027BE1BB04076
:104FC8000243501E824113430022E2E6002C4FD0D8
:104FD800184CA44500D1ABE0802424047642214338
:104FE800382E00DDDFE01F2E00DD43E12027BC1B4B
:104FF800A1460C004F46BC40A0462C004746F44052
:105008003C434F46BD406F1EBD41F1402C43151B2C
:10501800AA429241411A5242891A64469A46BFE608
:1050280041464546314300D0BEE60026002400250F
:10503800F2E6C046FF070000FFFF7FFFFFFF0F807B
:105048001F2B59DC2027FF1ABC46070063469F40E8
:105058005B46B9461700DF40B8464F4643461F43F4
:1050680063469A40531E9A415B463A43D840F4E659
:105078000C002C435CD0F643002E55D1551BAA4298
:10508800A441411A6442091B9A46644688E6964F31
:10509800BC4200D0D8E628E6002280E700208FE74F
:1050A8000B002B43002C00D0C2E0002B00D101E103
:1050B8000300134300D118E6AB18AB42B6410918F8
:1050C800764271180A0200D409E1884A1D0011408D
:1050D80064460AE6002C5BD10E002E4300D08AE01D
:1050E8000100114300D1C2E0010015009A46FCE519
:1050F8006446002100258FE620235B429C46DC4461
:1051080063460700DF405B46BC46202B00D1ACE07D
:1051180040235F46DB1B98400243501E8241634692
:1051280013431A00002098E66F4CA44500D057E7B7
:105138000100150064469A46D7E5002C39D10C00C9
:105148002C436ED0DB43002B1AD0674CA44568D0A3
:10515800382B00DDA4E01F2B00DDAEE020240F007B
:10516800E41AA740B9462F00DF40B846A3464F4689
:10517800444627435C46A5406C1EA541D9403D43A3
:10518800AD1895429B4109185B42591864466BE675
:105198000C002C4315D1010011437BD001001500F0
:1051A8009A46514CA1E50D43691E8D410021ECB290
:1051B8002DE74D4CA44534D0802424045B42214380
:1051C800C6E7040014434ED0ED084C072C43802555
:1051D800C9082D03294208D0C6082E4205D1D20895
:1051E800410711430C009A463100620FC900E500DF
:1051F80011433D4C79E50600164300D175E5AE1A1A
:10520800B0464545BF410E1A7F42F61B370200D40F
:10521800F4E5551BAA42B641411A7642891B9A46C3
:1052280063E50100150064465FE5002200257BE583
:10523800002B3BD00300134315D0ED084B072B433D
:105248008025C9082D03294207D0C4082C4204D15F
:1052580041070B002100D2081343C9005A0F11431C
:10526800DD00214C41E5204C3FE5002054E70026B5
:105278000025D1E534000F00203CE7403C00202EFB
:105288002BD04027BE1BB1400D43691E8D41002124
:105298002C43BCE6802100260903134C0025BBE5FE
:1052A8000D43691E8D410021EDB269E7010015002B
:1052B8000D4C1AE50100150017E51C000F00203CF5
:1052C800E7403C00202B0CD04027FB1A99400D43A7
:1052D800691E8D410021254352E70021D4E71D00B6
:1052E80092E50021F3E7C046FF070000FFFF7FFFBC
:1052F800F0B55F4656464D464446F0B41F035C0081
:10530800DB0F9A46194B0E034D00C90F8046360B2A
:105318006D0D8B4691463F0B640D9D4219D0134B82
:105328009C421BD00123A54206D018003CBC9046E5
:105338009946A246AB46F0BDBE42F6D1C845F4D167
:10534800D34510D0002DF0D1304303005A1E9341AD
:10535800EBE7310001230143E7D1E0E73A430123BA
:10536800002AE2D1DEE70023DFE7C046FF0700009E
:10537800F0B55F46444656464D46F0B41F033C0B15
:105388002C4F0E034D00A3465C008446360B6D0D72
:10539800C90F9046640DDB0FBD422BD0254FBC4290
:1053A8002ED0002D0ED13043070081467842784137
:1053B800002C17D15F463A4314D14B460020002BEE
:1053C8000AD006E0002C02D15846024301D0994287
:1053D8001AD00123484218433CBC90469946A2463D
:1053E800AB46F0BD0028F2D0584258410122404255
:1053F8001043F1E737000743D0D002204042EBE7E3
:105408005F461743CDD0F8E7A542E2DC05DB5E45F1
:10541800DFD808D000205E45DED24842484101234B
:1054280040421843D8E7C445D3D80020C445F4D334
:10543800D2E7C046FF070000F0B55F464D46444638
:105448005646F0B41C03240BA4462F4C0F034D0002
:105458005E00C90F80463F0B6D0D8B469146760D59
:10546800DB0FA54220D0284CA64222D0002D12D115
:10547800384344424441002E20D0002C0DD05C42D9
:10548800634101245B421C4320003CBC9046994682
:10549800A246AB46F0BD002E17D05B4519D05B463F
:1054A8005C4201231C43EFE7390002240143EBD19E
:1054B800D9E7614602241143E6D1D7E761460A439A
:1054C800DBD100240028DFD0E9E761460A43E4D1B4
:1054D800E5E7B54203DD01225C421443D4E7B54257
:1054E800CDDB6745DBD809D000246745CCD25946C7
:1054F8004C426141012449420C43C5E7C845CED816
:105508000024C845F3D3BFE7FF070000F0B55F46A6
:1055180056464D464446F0B40D0399464E002B0BB3
:1055280087B00700924680469B46760DCC0F002E2A
:1055380069D06D4B9E4235D05B468022DD00120457
:10554800430F13432B439B46C3009846674B0027E2
:105558009C460023664401934A4615035000D20F27
:1055680053462D0B400D914600D176E05E4A90429D
:105578006CD080225B0F120413435C4AED00944602
:105588001D4353460022DB00604449463618701C10
:105598006140029017430F2F00D9AFE05448BF0075
:1055A800C759BF465B461F4300D088E000239B468F
:1055B8009846023308270193CEE74946022A6AD063
:1055C800032A00D109E2012A00D0BBE111400022E0
:1055D800002300259046CCB200212D030A0D1205A8
:1055E8002D0B1543434A1B0515401D436D00E40769
:1055F8006D0825434046290007B03CBC90469946B3
:10560800A246AB46F0BD034352D05B46002B00D107
:105618008AE15846FDF704F903000B3B1C2B00DD1B
:105628007BE11D22D31A3A0001005D46DA400839B1
:105638008D4013008F402B439B46B8462E4B0027C6
:105648009C46002360444642019385E752462A431C
:105658002CD100250023022297E752462A4321D065
:10566800002D00D154E12800FDF7DAF803000B3BC8
:105678001C2B00DD46E11D21CB1A51460200D94002
:105688005346083A954093400D431B4A944660445C
:105698004042002279E7012400220C40124B0025E9
:1056A800904699E70025002301226EE703226CE764
:1056B80000239B4698460133042701934CE70323B4
:1056C8000C27019348E700238025984600242D03E2
:1056D800054B81E75D464346019A6FE75D464346C1
:1056E8002100019A6AE7C046FF07000001FCFFFF9E
:1056F80050680008FFFF0F80F30300004246120CB9
:1057080091461A0C9446424617044A461B041B0C41
:105718005A43604690464A46424310000392624606
:105728001C003F0C7A437C4342440192220C92466F
:10573800019A5244904506D982468020400280460C
:10574800C24450460390100C049048462404240C8C
:105758001204121905922A0C2D042D0C68432C00F2
:10576800824648467C4350438146200C8046574336
:1057780057444744BA4503D9802040028046C14473
:10578800380C3F04B84648442404240C019004987B
:10579800A044404404905846000C814658460404EE
:1057A800200C8246070048465F434C464343604608
:1057B80060436446834650464443380C8446E418A4
:1057C8006444A34203D980235B029C46E3444846D1
:1057D8003F04230C3F0C2404E419574668436F43E5
:1057E80084464D46504655434243380C81466244F0
:1057F8004A445B44944503D980204002844665446A
:1058080003983F04834604983F0C8446E344C34509
:105818008041404282461004844601986744844689
:105828006744A344BC46A345A4419946D444644272
:105838008742BF41D4458041E144A04699459B41F8
:105848007F424042C8440743120CBA18A045A441FD
:105858005F423B0064422343D71843467D19DB0D62
:105868006D021D435B465A02059B1A43531E9A411B
:105878005B46DB0D1A4343465B021343EA0107D537
:1058880001225C0813402343EA07029E13436D0874
:10589800574AB218002A4BDD580709D00F20184084
:1058A800042805D0181D98429B415B42ED1803005F
:1058B800E80104D54F4A15408022D200B2184E485C
:1058C800824200DDE7E60124DB08680718436D0221
:1058D800530580462D0B5B0D0C407DE68022594612
:1058E8001203114208D0154206D115432D039846DC
:1058F8002D0B4C46414B6FE65D4615432D032D0B92
:105908003E4B69E603005546283B9D400023BCE614
:105918005046FCF785FF2030A8E60300283B9F404F
:105928000023BB46984689E6FCF77AFF203073E6E9
:105938000124A61A382E07DD00220C40002300257A
:10594800904649E6029EA3E71F2E20DC20222C0069
:105958001800921BF040944093400443581E834122
:105968001C43F540630709D00F232340042B05D0BF
:1059780023001C1D9C4292415242AD182B021FD598
:10598800012400220C4001230025904624E61F2014
:105998002C004042821AD440202E1CD04022961B54
:1059A800B5402B43581E8341072023431840002548
:1059B800002809D00F2200251A401C00042AD8D13B
:1059C800230068076D022D0B0124DB08034398466A
:1059D8000C40002300E60025E3E78022012412039F
:1059E80015432D0398462D0B0C40044BF4E5C04697
:1059F800FF030000FFFFFFFEFE070000FF07000097
:105A0800F0B557464E464546E0B40E001100F20F79
:105A18009246C500420F180337037400400A4E0F20
:105A28007F0A3043CF4E17435A00640D520DDB0FE7
:105A3800C900B24200D1E5E001267340A61AB44677
:105A4800534500D1AFE0002E00DC0DE1002A3AD129
:105A580003000B4300D0E4E06B0709D00F232B4071
:105A6800042B05D02B1DAB42AD416D427F191D00A3
:105A78003B0200D488E0BB4B01349C4200D110E1CA
:105A88003A00B94B51461A4001235007ED0852021B
:105A980064050543120B640D0B4000212800120316
:105AA8000D0D120B64052D0515436208AF4CDB077D
:105AB8002C401443640064081C4321001CBC90461D
:105AC8009946A246F0BDA74B9C42C5D080231B0433
